{
  "contractName": "ChessGame",
  "abi": [
    {
      "inputs": [
        {
          "internalType": "address",
          "name": "_player1",
          "type": "address"
        },
        {
          "internalType": "address",
          "name": "_player2",
          "type": "address"
        }
      ],
      "stateMutability": "nonpayable",
      "type": "constructor"
    },
    {
      "inputs": [
        {
          "internalType": "uint256",
          "name": "",
          "type": "uint256"
        }
      ],
      "name": "players",
      "outputs": [
        {
          "internalType": "address",
          "name": "playerAddress",
          "type": "address"
        }
      ],
      "stateMutability": "view",
      "type": "function"
    },
    {
      "inputs": [
        {
          "internalType": "uint256",
          "name": "playerIndex",
          "type": "uint256"
        },
        {
          "internalType": "uint256",
          "name": "weaponId",
          "type": "uint256"
        }
      ],
      "name": "addWeapon",
      "outputs": [],
      "stateMutability": "nonpayable",
      "type": "function"
    }
  ],
  "bytecode": "0x608060405234801561000f575f80fd5b50604051610699380380610699833981810160405281019061003191906102d9565b60405180604001604052808373ffffffffffffffffffffffffffffffffffffffff1681526020015f67ffffffffffffffff81111561007257610071610317565b5b6040519080825280602002602001820160405280156100a05781602001602082028036833780820191505090505b508152505f80600281106100b7576100b6610344565b5b600202015f820151815f015f6101000a81548173ffffffffffffffffffffffffffffffffffffffff021916908373ffffffffffffffffffffffffffffffffffffffff160217905550602082015181600101908051906020019061011b929190610215565b5090505060405180604001604052808273ffffffffffffffffffffffffffffffffffffffff1681526020015f67ffffffffffffffff8111156101605761015f610317565b5b60405190808252806020026020018201604052801561018e5781602001602082028036833780820191505090505b508152505f6001600281106101a6576101a5610344565b5b600202015f820151815f015f6101000a81548173ffffffffffffffffffffffffffffffffffffffff021916908373ffffffffffffffffffffffffffffffffffffffff160217905550602082015181600101908051906020019061020a929190610215565b509050505050610371565b828054828255905f5260205f2090810192821561024f579160200282015b8281111561024e578251825591602001919060010190610233565b5b50905061025c9190610260565b5090565b5b80821115610277575f815f905550600101610261565b5090565b5f80fd5b5f73ffffffffffffffffffffffffffffffffffffffff82169050919050565b5f6102a88261027f565b9050919050565b6102b88161029e565b81146102c2575f80fd5b50565b5f815190506102d3816102af565b92915050565b5f80604083850312156102ef576102ee61027b565b5b5f6102fc858286016102c5565b925050602061030d858286016102c5565b9150509250929050565b7f4e487b71000000000000000000000000000000000000000000000000000000005f52604160045260245ffd5b7f4e487b71000000000000000000000000000000000000000000000000000000005f52603260045260245ffd5b61031b8061037e5f395ff3fe608060405234801561000f575f80fd5b5060043610610034575f3560e01c8063572e2d9114610038578063f71d96cb14610054575b5f80fd5b610052600480360381019061004d919061017f565b610084565b005b61006e600480360381019061006991906101bd565b610109565b60405161007b9190610227565b60405180910390f35b600282106100c7576040517f08c379a00000000000000000000000000000000000000000000000000000000081526004016100be9061029a565b60405180910390fd5b5f82600281106100da576100d96102b8565b5b6002020160010181908060018154018082558091505060019003905f5260205f20015f90919091909150555050565b5f8160028110610117575f80fd5b600202015f91509050805f015f9054906101000a900473ffffffffffffffffffffffffffffffffffffffff16905081565b5f80fd5b5f819050919050565b61015e8161014c565b8114610168575f80fd5b50565b5f8135905061017981610155565b92915050565b5f806040838503121561019557610194610148565b5b5f6101a28582860161016b565b92505060206101b38582860161016b565b9150509250929050565b5f602082840312156101d2576101d1610148565b5b5f6101df8482850161016b565b91505092915050565b5f73ffffffffffffffffffffffffffffffffffffffff82169050919050565b5f610211826101e8565b9050919050565b61022181610207565b82525050565b5f60208201905061023a5f830184610218565b92915050565b5f82825260208201905092915050565b7f496e76616c696420706c6179657220696e6465780000000000000000000000005f82015250565b5f610284601483610240565b915061028f82610250565b602082019050919050565b5f6020820190508181035f8301526102b181610278565b9050919050565b7f4e487b71000000000000000000000000000000000000000000000000000000005f52603260045260245ffdfea26469706673582212203cd61fe7d0954027e0c9a2a5708028fac6669bc8cacb9683806478ec1005a76964736f6c63430008150033",
  "immutableReferences": {},
  "source": "// SPDX-License-Identifier: MIT\r\npragma solidity ^0.8.0;\r\n\r\nimport \"./NFTWeapon.sol\";\r\n\r\ncontract ChessGame {\r\n    struct Player {\r\n        address playerAddress;\r\n        uint[] weapons;\r\n    }\r\n\r\n    Player[2] public players;\r\n\r\n    constructor(address _player1, address _player2) {\r\n        players[0] = Player(_player1, new uint[](0));\r\n        players[1] = Player(_player2, new uint[](0));\r\n    }\r\n\r\n    function addWeapon(uint playerIndex, uint weaponId) external {\r\n        require(playerIndex < 2, \"Invalid player index\");\r\n        players[playerIndex].weapons.push(weaponId);\r\n    }\r\n}\r\n",
  "sourcePath": "D:\\ChessW8\\chess-game\\contracts\\ChessGame.sol",
  "compiler": {
    "name": "solc",
    "version": "0.8.21+commit.d9974bed.Emscripten.clang"
  },
  "schemaVersion": "3.4.16",
  "updatedAt": "2024-05-23T04:34:56.217Z",
  "devdoc": {
    "kind": "dev",
    "methods": {},
    "version": 1
  },
  "userdoc": {
    "kind": "user",
    "methods": {},
    "version": 1
  }
}