{
  "contractName": "NFTWeapon",
  "abi": [
    {
      "inputs": [],
      "stateMutability": "nonpayable",
      "type": "constructor"
    },
    {
      "inputs": [
        {
          "internalType": "address",
          "name": "sender",
          "type": "address"
        },
        {
          "internalType": "uint256",
          "name": "tokenId",
          "type": "uint256"
        },
        {
          "internalType": "address",
          "name": "owner",
          "type": "address"
        }
      ],
      "name": "ERC721IncorrectOwner",
      "type": "error"
    },
    {
      "inputs": [
        {
          "internalType": "address",
          "name": "operator",
          "type": "address"
        },
        {
          "internalType": "uint256",
          "name": "tokenId",
          "type": "uint256"
        }
      ],
      "name": "ERC721InsufficientApproval",
      "type": "error"
    },
    {
      "inputs": [
        {
          "internalType": "address",
          "name": "approver",
          "type": "address"
        }
      ],
      "name": "ERC721InvalidApprover",
      "type": "error"
    },
    {
      "inputs": [
        {
          "internalType": "address",
          "name": "operator",
          "type": "address"
        }
      ],
      "name": "ERC721InvalidOperator",
      "type": "error"
    },
    {
      "inputs": [
        {
          "internalType": "address",
          "name": "owner",
          "type": "address"
        }
      ],
      "name": "ERC721InvalidOwner",
      "type": "error"
    },
    {
      "inputs": [
        {
          "internalType": "address",
          "name": "receiver",
          "type": "address"
        }
      ],
      "name": "ERC721InvalidReceiver",
      "type": "error"
    },
    {
      "inputs": [
        {
          "internalType": "address",
          "name": "sender",
          "type": "address"
        }
      ],
      "name": "ERC721InvalidSender",
      "type": "error"
    },
    {
      "inputs": [
        {
          "internalType": "uint256",
          "name": "tokenId",
          "type": "uint256"
        }
      ],
      "name": "ERC721NonexistentToken",
      "type": "error"
    },
    {
      "anonymous": false,
      "inputs": [
        {
          "indexed": true,
          "internalType": "address",
          "name": "owner",
          "type": "address"
        },
        {
          "indexed": true,
          "internalType": "address",
          "name": "approved",
          "type": "address"
        },
        {
          "indexed": true,
          "internalType": "uint256",
          "name": "tokenId",
          "type": "uint256"
        }
      ],
      "name": "Approval",
      "type": "event"
    },
    {
      "anonymous": false,
      "inputs": [
        {
          "indexed": true,
          "internalType": "address",
          "name": "owner",
          "type": "address"
        },
        {
          "indexed": true,
          "internalType": "address",
          "name": "operator",
          "type": "address"
        },
        {
          "indexed": false,
          "internalType": "bool",
          "name": "approved",
          "type": "bool"
        }
      ],
      "name": "ApprovalForAll",
      "type": "event"
    },
    {
      "anonymous": false,
      "inputs": [
        {
          "indexed": true,
          "internalType": "address",
          "name": "from",
          "type": "address"
        },
        {
          "indexed": true,
          "internalType": "address",
          "name": "to",
          "type": "address"
        },
        {
          "indexed": true,
          "internalType": "uint256",
          "name": "tokenId",
          "type": "uint256"
        }
      ],
      "name": "Transfer",
      "type": "event"
    },
    {
      "inputs": [
        {
          "internalType": "address",
          "name": "to",
          "type": "address"
        },
        {
          "internalType": "uint256",
          "name": "tokenId",
          "type": "uint256"
        }
      ],
      "name": "approve",
      "outputs": [],
      "stateMutability": "nonpayable",
      "type": "function"
    },
    {
      "inputs": [
        {
          "internalType": "address",
          "name": "owner",
          "type": "address"
        }
      ],
      "name": "balanceOf",
      "outputs": [
        {
          "internalType": "uint256",
          "name": "",
          "type": "uint256"
        }
      ],
      "stateMutability": "view",
      "type": "function"
    },
    {
      "inputs": [
        {
          "internalType": "uint256",
          "name": "tokenId",
          "type": "uint256"
        }
      ],
      "name": "getApproved",
      "outputs": [
        {
          "internalType": "address",
          "name": "",
          "type": "address"
        }
      ],
      "stateMutability": "view",
      "type": "function"
    },
    {
      "inputs": [
        {
          "internalType": "address",
          "name": "owner",
          "type": "address"
        },
        {
          "internalType": "address",
          "name": "operator",
          "type": "address"
        }
      ],
      "name": "isApprovedForAll",
      "outputs": [
        {
          "internalType": "bool",
          "name": "",
          "type": "bool"
        }
      ],
      "stateMutability": "view",
      "type": "function"
    },
    {
      "inputs": [],
      "name": "name",
      "outputs": [
        {
          "internalType": "string",
          "name": "",
          "type": "string"
        }
      ],
      "stateMutability": "view",
      "type": "function"
    },
    {
      "inputs": [],
      "name": "nextTokenId",
      "outputs": [
        {
          "internalType": "uint256",
          "name": "",
          "type": "uint256"
        }
      ],
      "stateMutability": "view",
      "type": "function"
    },
    {
      "inputs": [
        {
          "internalType": "uint256",
          "name": "tokenId",
          "type": "uint256"
        }
      ],
      "name": "ownerOf",
      "outputs": [
        {
          "internalType": "address",
          "name": "",
          "type": "address"
        }
      ],
      "stateMutability": "view",
      "type": "function"
    },
    {
      "inputs": [
        {
          "internalType": "address",
          "name": "from",
          "type": "address"
        },
        {
          "internalType": "address",
          "name": "to",
          "type": "address"
        },
        {
          "internalType": "uint256",
          "name": "tokenId",
          "type": "uint256"
        }
      ],
      "name": "safeTransferFrom",
      "outputs": [],
      "stateMutability": "nonpayable",
      "type": "function"
    },
    {
      "inputs": [
        {
          "internalType": "address",
          "name": "from",
          "type": "address"
        },
        {
          "internalType": "address",
          "name": "to",
          "type": "address"
        },
        {
          "internalType": "uint256",
          "name": "tokenId",
          "type": "uint256"
        },
        {
          "internalType": "bytes",
          "name": "data",
          "type": "bytes"
        }
      ],
      "name": "safeTransferFrom",
      "outputs": [],
      "stateMutability": "nonpayable",
      "type": "function"
    },
    {
      "inputs": [
        {
          "internalType": "address",
          "name": "operator",
          "type": "address"
        },
        {
          "internalType": "bool",
          "name": "approved",
          "type": "bool"
        }
      ],
      "name": "setApprovalForAll",
      "outputs": [],
      "stateMutability": "nonpayable",
      "type": "function"
    },
    {
      "inputs": [
        {
          "internalType": "bytes4",
          "name": "interfaceId",
          "type": "bytes4"
        }
      ],
      "name": "supportsInterface",
      "outputs": [
        {
          "internalType": "bool",
          "name": "",
          "type": "bool"
        }
      ],
      "stateMutability": "view",
      "type": "function"
    },
    {
      "inputs": [],
      "name": "symbol",
      "outputs": [
        {
          "internalType": "string",
          "name": "",
          "type": "string"
        }
      ],
      "stateMutability": "view",
      "type": "function"
    },
    {
      "inputs": [
        {
          "internalType": "uint256",
          "name": "tokenId",
          "type": "uint256"
        }
      ],
      "name": "tokenURI",
      "outputs": [
        {
          "internalType": "string",
          "name": "",
          "type": "string"
        }
      ],
      "stateMutability": "view",
      "type": "function"
    },
    {
      "inputs": [
        {
          "internalType": "address",
          "name": "from",
          "type": "address"
        },
        {
          "internalType": "address",
          "name": "to",
          "type": "address"
        },
        {
          "internalType": "uint256",
          "name": "tokenId",
          "type": "uint256"
        }
      ],
      "name": "transferFrom",
      "outputs": [],
      "stateMutability": "nonpayable",
      "type": "function"
    },
    {
      "inputs": [
        {
          "internalType": "address",
          "name": "to",
          "type": "address"
        }
      ],
      "name": "mint",
      "outputs": [],
      "stateMutability": "nonpayable",
      "type": "function"
    }
  ],
  "bytecode": "0x608060405234801562000010575f80fd5b506040518060400160405280600981526020017f4e4654576561706f6e00000000000000000000000000000000000000000000008152506040518060400160405280600481526020017f4e46545700000000000000000000000000000000000000000000000000000000815250815f90816200008d91906200030c565b5080600190816200009f91906200030c565b505050620003f0565b5f81519050919050565b7f4e487b71000000000000000000000000000000000000000000000000000000005f52604160045260245ffd5b7f4e487b71000000000000000000000000000000000000000000000000000000005f52602260045260245ffd5b5f60028204905060018216806200012457607f821691505b6020821081036200013a5762000139620000df565b5b50919050565b5f819050815f5260205f209050919050565b5f6020601f8301049050919050565b5f82821b905092915050565b5f600883026200019e7fffffffffffffffffffffffffffffffffffffffffffffffffffffffffffffffff8262000161565b620001aa868362000161565b95508019841693508086168417925050509392505050565b5f819050919050565b5f819050919050565b5f620001f4620001ee620001e884620001c2565b620001cb565b620001c2565b9050919050565b5f819050919050565b6200020f83620001d4565b620002276200021e82620001fb565b8484546200016d565b825550505050565b5f90565b6200023d6200022f565b6200024a81848462000204565b505050565b5b818110156200027157620002655f8262000233565b60018101905062000250565b5050565b601f821115620002c0576200028a8162000140565b620002958462000152565b81016020851015620002a5578190505b620002bd620002b48562000152565b8301826200024f565b50505b505050565b5f82821c905092915050565b5f620002e25f1984600802620002c5565b1980831691505092915050565b5f620002fc8383620002d1565b9150826002028217905092915050565b6200031782620000a8565b67ffffffffffffffff811115620003335762000332620000b2565b5b6200033f82546200010c565b6200034c82828562000275565b5f60209050601f83116001811462000382575f84156200036d578287015190505b620003798582620002ef565b865550620003e8565b601f198416620003928662000140565b5f5b82811015620003bb5784890151825560018201915060208501945060208101905062000394565b86831015620003db5784890151620003d7601f891682620002d1565b8355505b6001600288020188555050505b505050505050565b611dd180620003fe5f395ff3fe608060405234801561000f575f80fd5b50600436106100f3575f3560e01c80636a62784211610095578063a22cb46511610064578063a22cb46514610281578063b88d4fde1461029d578063c87b56dd146102b9578063e985e9c5146102e9576100f3565b80636a627842146101f957806370a082311461021557806375794a3c1461024557806395d89b4114610263576100f3565b8063095ea7b3116100d1578063095ea7b31461017557806323b872dd1461019157806342842e0e146101ad5780636352211e146101c9576100f3565b806301ffc9a7146100f757806306fdde0314610127578063081812fc14610145575b5f80fd5b610111600480360381019061010c91906115ee565b610319565b60405161011e9190611633565b60405180910390f35b61012f6103fa565b60405161013c91906116d6565b60405180910390f35b61015f600480360381019061015a9190611729565b610489565b60405161016c9190611793565b60405180910390f35b61018f600480360381019061018a91906117d6565b6104a4565b005b6101ab60048036038101906101a69190611814565b6104ba565b005b6101c760048036038101906101c29190611814565b6105b9565b005b6101e360048036038101906101de9190611729565b6105d8565b6040516101f09190611793565b60405180910390f35b610213600480360381019061020e9190611864565b6105e9565b005b61022f600480360381019061022a9190611864565b61060f565b60405161023c919061189e565b60405180910390f35b61024d6106c5565b60405161025a919061189e565b60405180910390f35b61026b6106cb565b60405161027891906116d6565b60405180910390f35b61029b600480360381019061029691906118e1565b61075b565b005b6102b760048036038101906102b29190611a4b565b610771565b005b6102d360048036038101906102ce9190611729565b61078e565b6040516102e091906116d6565b60405180910390f35b61030360048036038101906102fe9190611acb565b6107f4565b6040516103109190611633565b60405180910390f35b5f7f80ac58cd000000000000000000000000000000000000000000000000000000007bffffffffffffffffffffffffffffffffffffffffffffffffffffffff1916827bffffffffffffffffffffffffffffffffffffffffffffffffffffffff191614806103e357507f5b5e139f000000000000000000000000000000000000000000000000000000007bffffffffffffffffffffffffffffffffffffffffffffffffffffffff1916827bffffffffffffffffffffffffffffffffffffffffffffffffffffffff1916145b806103f357506103f282610882565b5b9050919050565b60605f805461040890611b36565b80601f016020809104026020016040519081016040528092919081815260200182805461043490611b36565b801561047f5780601f106104565761010080835404028352916020019161047f565b820191905f5260205f20905b81548152906001019060200180831161046257829003601f168201915b5050505050905090565b5f610493826108eb565b5061049d82610971565b9050919050565b6104b682826104b16109aa565b6109b1565b5050565b5f73ffffffffffffffffffffffffffffffffffffffff168273ffffffffffffffffffffffffffffffffffffffff160361052a575f6040517f64a0ae920000000000000000000000000000000000000000000000000000000081526004016105219190611793565b60405180910390fd5b5f61053d83836105386109aa565b6109c3565b90508373ffffffffffffffffffffffffffffffffffffffff168173ffffffffffffffffffffffffffffffffffffffff16146105b3578382826040517f64283d7b0000000000000000000000000000000000000000000000000000000081526004016105aa93929190611b66565b60405180910390fd5b50505050565b6105d383838360405180602001604052805f815250610771565b505050565b5f6105e2826108eb565b9050919050565b6105f581600654610bce565b60065f81548092919061060790611bc8565b919050555050565b5f8073ffffffffffffffffffffffffffffffffffffffff168273ffffffffffffffffffffffffffffffffffffffff1603610680575f6040517f89c62b640000000000000000000000000000000000000000000000000000000081526004016106779190611793565b60405180910390fd5b60035f8373ffffffffffffffffffffffffffffffffffffffff1673ffffffffffffffffffffffffffffffffffffffff1681526020019081526020015f20549050919050565b60065481565b6060600180546106da90611b36565b80601f016020809104026020016040519081016040528092919081815260200182805461070690611b36565b80156107515780601f1061072857610100808354040283529160200191610751565b820191905f5260205f20905b81548152906001019060200180831161073457829003601f168201915b5050505050905090565b61076d6107666109aa565b8383610cc1565b5050565b61077c8484846104ba565b61078884848484610e2a565b50505050565b6060610799826108eb565b505f6107a3610fdc565b90505f8151116107c15760405180602001604052805f8152506107ec565b806107cb84610ff2565b6040516020016107dc929190611c49565b6040516020818303038152906040525b915050919050565b5f60055f8473ffffffffffffffffffffffffffffffffffffffff1673ffffffffffffffffffffffffffffffffffffffff1681526020019081526020015f205f8373ffffffffffffffffffffffffffffffffffffffff1673ffffffffffffffffffffffffffffffffffffffff1681526020019081526020015f205f9054906101000a900460ff16905092915050565b5f7f01ffc9a7000000000000000000000000000000000000000000000000000000007bffffffffffffffffffffffffffffffffffffffffffffffffffffffff1916827bffffffffffffffffffffffffffffffffffffffffffffffffffffffff1916149050919050565b5f806108f6836110bc565b90505f73ffffffffffffffffffffffffffffffffffffffff168173ffffffffffffffffffffffffffffffffffffffff160361096857826040517f7e27328900000000000000000000000000000000000000000000000000000000815260040161095f919061189e565b60405180910390fd5b80915050919050565b5f60045f8381526020019081526020015f205f9054906101000a900473ffffffffffffffffffffffffffffffffffffffff169050919050565b5f33905090565b6109be83838360016110f5565b505050565b5f806109ce846110bc565b90505f73ffffffffffffffffffffffffffffffffffffffff168373ffffffffffffffffffffffffffffffffffffffff1614610a0f57610a0e8184866112b4565b5b5f73ffffffffffffffffffffffffffffffffffffffff168173ffffffffffffffffffffffffffffffffffffffff1614610a9a57610a4e5f855f806110f5565b600160035f8373ffffffffffffffffffffffffffffffffffffffff1673ffffffffffffffffffffffffffffffffffffffff1681526020019081526020015f205f82825403925050819055505b5f73ffffffffffffffffffffffffffffffffffffffff168573ffffffffffffffffffffffffffffffffffffffff1614610b1957600160035f8773ffffffffffffffffffffffffffffffffffffffff1673ffffffffffffffffffffffffffffffffffffffff1681526020019081526020015f205f82825401925050819055505b8460025f8681526020019081526020015f205f6101000a81548173ffffffffffffffffffffffffffffffffffffffff021916908373ffffffffffffffffffffffffffffffffffffffff160217905550838573ffffffffffffffffffffffffffffffffffffffff168273ffffffffffffffffffffffffffffffffffffffff167fddf252ad1be2c89b69c2b068fc378daa952ba7f163c4a11628f55a4df523b3ef60405160405180910390a4809150509392505050565b5f73ffffffffffffffffffffffffffffffffffffffff168273ffffffffffffffffffffffffffffffffffffffff1603610c3e575f6040517f64a0ae92000000000000000000000000000000000000000000000000000000008152600401610c359190611793565b60405180910390fd5b5f610c4a83835f6109c3565b90505f73ffffffffffffffffffffffffffffffffffffffff168173ffffffffffffffffffffffffffffffffffffffff1614610cbc575f6040517f73c6ac6e000000000000000000000000000000000000000000000000000000008152600401610cb39190611793565b60405180910390fd5b505050565b5f73ffffffffffffffffffffffffffffffffffffffff168273ffffffffffffffffffffffffffffffffffffffff1603610d3157816040517f5b08ba18000000000000000000000000000000000000000000000000000000008152600401610d289190611793565b60405180910390fd5b8060055f8573ffffffffffffffffffffffffffffffffffffffff1673ffffffffffffffffffffffffffffffffffffffff1681526020019081526020015f205f8473ffffffffffffffffffffffffffffffffffffffff1673ffffffffffffffffffffffffffffffffffffffff1681526020019081526020015f205f6101000a81548160ff0219169083151502179055508173ffffffffffffffffffffffffffffffffffffffff168373ffffffffffffffffffffffffffffffffffffffff167f17307eab39ab6107e8899845ad3d59bd9653f200f220920489ca2b5937696c3183604051610e1d9190611633565b60405180910390a3505050565b5f8373ffffffffffffffffffffffffffffffffffffffff163b1115610fd6578273ffffffffffffffffffffffffffffffffffffffff1663150b7a02610e6d6109aa565b8685856040518563ffffffff1660e01b8152600401610e8f9493929190611cbe565b6020604051808303815f875af1925050508015610eca57506040513d601f19601f82011682018060405250810190610ec79190611d1c565b60015b610f4b573d805f8114610ef8576040519150601f19603f3d011682016040523d82523d5f602084013e610efd565b606091505b505f815103610f4357836040517f64a0ae92000000000000000000000000000000000000000000000000000000008152600401610f3a9190611793565b60405180910390fd5b805181602001fd5b63150b7a0260e01b7bffffffffffffffffffffffffffffffffffffffffffffffffffffffff1916817bffffffffffffffffffffffffffffffffffffffffffffffffffffffff191614610fd457836040517f64a0ae92000000000000000000000000000000000000000000000000000000008152600401610fcb9190611793565b60405180910390fd5b505b50505050565b606060405180602001604052805f815250905090565b60605f600161100084611377565b0190505f8167ffffffffffffffff81111561101e5761101d611927565b5b6040519080825280601f01601f1916602001820160405280156110505781602001600182028036833780820191505090505b5090505f82602001820190505b6001156110b1578080600190039150507f3031323334353637383961626364656600000000000000000000000000000000600a86061a8153600a85816110a6576110a5611d47565b5b0494505f850361105d575b819350505050919050565b5f60025f8381526020019081526020015f205f9054906101000a900473ffffffffffffffffffffffffffffffffffffffff169050919050565b808061112d57505f73ffffffffffffffffffffffffffffffffffffffff168273ffffffffffffffffffffffffffffffffffffffff1614155b1561125f575f61113c846108eb565b90505f73ffffffffffffffffffffffffffffffffffffffff168373ffffffffffffffffffffffffffffffffffffffff16141580156111a657508273ffffffffffffffffffffffffffffffffffffffff168173ffffffffffffffffffffffffffffffffffffffff1614155b80156111b957506111b781846107f4565b155b156111fb57826040517fa9fbf51f0000000000000000000000000000000000000000000000000000000081526004016111f29190611793565b60405180910390fd5b811561125d57838573ffffffffffffffffffffffffffffffffffffffff168273ffffffffffffffffffffffffffffffffffffffff167f8c5be1e5ebec7d5bd14f71427d1e84f3dd0314c0f7b2291e5b200ac8c7c3b92560405160405180910390a45b505b8360045f8581526020019081526020015f205f6101000a81548173ffffffffffffffffffffffffffffffffffffffff021916908373ffffffffffffffffffffffffffffffffffffffff16021790555050505050565b6112bf8383836114c8565b611372575f73ffffffffffffffffffffffffffffffffffffffff168373ffffffffffffffffffffffffffffffffffffffff160361133357806040517f7e27328900000000000000000000000000000000000000000000000000000000815260040161132a919061189e565b60405180910390fd5b81816040517f177e802f000000000000000000000000000000000000000000000000000000008152600401611369929190611d74565b60405180910390fd5b505050565b5f805f90507a184f03e93ff9f4daa797ed6e38ed64bf6a1f01000000000000000083106113d3577a184f03e93ff9f4daa797ed6e38ed64bf6a1f01000000000000000083816113c9576113c8611d47565b5b0492506040810190505b6d04ee2d6d415b85acef81000000008310611410576d04ee2d6d415b85acef8100000000838161140657611405611d47565b5b0492506020810190505b662386f26fc10000831061143f57662386f26fc10000838161143557611434611d47565b5b0492506010810190505b6305f5e1008310611468576305f5e100838161145e5761145d611d47565b5b0492506008810190505b612710831061148d57612710838161148357611482611d47565b5b0492506004810190505b606483106114b057606483816114a6576114a5611d47565b5b0492506002810190505b600a83106114bf576001810190505b80915050919050565b5f8073ffffffffffffffffffffffffffffffffffffffff168373ffffffffffffffffffffffffffffffffffffffff161415801561157f57508273ffffffffffffffffffffffffffffffffffffffff168473ffffffffffffffffffffffffffffffffffffffff161480611540575061153f84846107f4565b5b8061157e57508273ffffffffffffffffffffffffffffffffffffffff1661156683610971565b73ffffffffffffffffffffffffffffffffffffffff16145b5b90509392505050565b5f604051905090565b5f80fd5b5f80fd5b5f7fffffffff0000000000000000000000000000000000000000000000000000000082169050919050565b6115cd81611599565b81146115d7575f80fd5b50565b5f813590506115e8816115c4565b92915050565b5f6020828403121561160357611602611591565b5b5f611610848285016115da565b91505092915050565b5f8115159050919050565b61162d81611619565b82525050565b5f6020820190506116465f830184611624565b92915050565b5f81519050919050565b5f82825260208201905092915050565b5f5b83811015611683578082015181840152602081019050611668565b5f8484015250505050565b5f601f19601f8301169050919050565b5f6116a88261164c565b6116b28185611656565b93506116c2818560208601611666565b6116cb8161168e565b840191505092915050565b5f6020820190508181035f8301526116ee818461169e565b905092915050565b5f819050919050565b611708816116f6565b8114611712575f80fd5b50565b5f81359050611723816116ff565b92915050565b5f6020828403121561173e5761173d611591565b5b5f61174b84828501611715565b91505092915050565b5f73ffffffffffffffffffffffffffffffffffffffff82169050919050565b5f61177d82611754565b9050919050565b61178d81611773565b82525050565b5f6020820190506117a65f830184611784565b92915050565b6117b581611773565b81146117bf575f80fd5b50565b5f813590506117d0816117ac565b92915050565b5f80604083850312156117ec576117eb611591565b5b5f6117f9858286016117c2565b925050602061180a85828601611715565b9150509250929050565b5f805f6060848603121561182b5761182a611591565b5b5f611838868287016117c2565b9350506020611849868287016117c2565b925050604061185a86828701611715565b9150509250925092565b5f6020828403121561187957611878611591565b5b5f611886848285016117c2565b91505092915050565b611898816116f6565b82525050565b5f6020820190506118b15f83018461188f565b92915050565b6118c081611619565b81146118ca575f80fd5b50565b5f813590506118db816118b7565b92915050565b5f80604083850312156118f7576118f6611591565b5b5f611904858286016117c2565b9250506020611915858286016118cd565b9150509250929050565b5f80fd5b5f80fd5b7f4e487b71000000000000000000000000000000000000000000000000000000005f52604160045260245ffd5b61195d8261168e565b810181811067ffffffffffffffff8211171561197c5761197b611927565b5b80604052505050565b5f61198e611588565b905061199a8282611954565b919050565b5f67ffffffffffffffff8211156119b9576119b8611927565b5b6119c28261168e565b9050602081019050919050565b828183375f83830152505050565b5f6119ef6119ea8461199f565b611985565b905082815260208101848484011115611a0b57611a0a611923565b5b611a168482856119cf565b509392505050565b5f82601f830112611a3257611a3161191f565b5b8135611a428482602086016119dd565b91505092915050565b5f805f8060808587031215611a6357611a62611591565b5b5f611a70878288016117c2565b9450506020611a81878288016117c2565b9350506040611a9287828801611715565b925050606085013567ffffffffffffffff811115611ab357611ab2611595565b5b611abf87828801611a1e565b91505092959194509250565b5f8060408385031215611ae157611ae0611591565b5b5f611aee858286016117c2565b9250506020611aff858286016117c2565b9150509250929050565b7f4e487b71000000000000000000000000000000000000000000000000000000005f52602260045260245ffd5b5f6002820490506001821680611b4d57607f821691505b602082108103611b6057611b5f611b09565b5b50919050565b5f606082019050611b795f830186611784565b611b86602083018561188f565b611b936040830184611784565b949350505050565b7f4e487b71000000000000000000000000000000000000000000000000000000005f52601160045260245ffd5b5f611bd2826116f6565b91507fffffffffffffffffffffffffffffffffffffffffffffffffffffffffffffffff8203611c0457611c03611b9b565b5b600182019050919050565b5f81905092915050565b5f611c238261164c565b611c2d8185611c0f565b9350611c3d818560208601611666565b80840191505092915050565b5f611c548285611c19565b9150611c608284611c19565b91508190509392505050565b5f81519050919050565b5f82825260208201905092915050565b5f611c9082611c6c565b611c9a8185611c76565b9350611caa818560208601611666565b611cb38161168e565b840191505092915050565b5f608082019050611cd15f830187611784565b611cde6020830186611784565b611ceb604083018561188f565b8181036060830152611cfd8184611c86565b905095945050505050565b5f81519050611d16816115c4565b92915050565b5f60208284031215611d3157611d30611591565b5b5f611d3e84828501611d08565b91505092915050565b7f4e487b71000000000000000000000000000000000000000000000000000000005f52601260045260245ffd5b5f604082019050611d875f830185611784565b611d94602083018461188f565b939250505056fea2646970667358221220d6eb7f2efc825f361aec132a0746b788f6d4dc15fab04a38a22320b6f1fc3c2c64736f6c63430008150033",
  "immutableReferences": {},
  "source": "// SPDX-License-Identifier: MIT\r\npragma solidity ^0.8.0;\r\n\r\nimport \"@openzeppelin/contracts/token/ERC721/ERC721.sol\";\r\n\r\ncontract NFTWeapon is ERC721 {\r\n    uint public nextTokenId;\r\n\r\n    constructor() ERC721(\"NFTWeapon\", \"NFTW\") {}\r\n\r\n    function mint(address to) external {\r\n        _mint(to, nextTokenId);\r\n        nextTokenId++;\r\n    }\r\n}\r\n",
  "sourcePath": "D:\\ChessW8\\chess-game\\contracts\\NFTWeapon.sol",
  "compiler": {
    "name": "solc",
    "version": "0.8.21+commit.d9974bed.Emscripten.clang"
  },
  "schemaVersion": "3.4.16",
  "updatedAt": "2024-05-23T04:34:56.225Z",
  "devdoc": {
    "errors": {
      "ERC721IncorrectOwner(address,uint256,address)": [
        {
          "details": "Indicates an error related to the ownership over a particular token. Used in transfers.",
          "params": {
            "owner": "Address of the current owner of a token.",
            "sender": "Address whose tokens are being transferred.",
            "tokenId": "Identifier number of a token."
          }
        }
      ],
      "ERC721InsufficientApproval(address,uint256)": [
        {
          "details": "Indicates a failure with the `operator`s approval. Used in transfers.",
          "params": {
            "operator": "Address that may be allowed to operate on tokens without being their owner.",
            "tokenId": "Identifier number of a token."
          }
        }
      ],
      "ERC721InvalidApprover(address)": [
        {
          "details": "Indicates a failure with the `approver` of a token to be approved. Used in approvals.",
          "params": {
            "approver": "Address initiating an approval operation."
          }
        }
      ],
      "ERC721InvalidOperator(address)": [
        {
          "details": "Indicates a failure with the `operator` to be approved. Used in approvals.",
          "params": {
            "operator": "Address that may be allowed to operate on tokens without being their owner."
          }
        }
      ],
      "ERC721InvalidOwner(address)": [
        {
          "details": "Indicates that an address can't be an owner. For example, `address(0)` is a forbidden owner in EIP-20. Used in balance queries.",
          "params": {
            "owner": "Address of the current owner of a token."
          }
        }
      ],
      "ERC721InvalidReceiver(address)": [
        {
          "details": "Indicates a failure with the token `receiver`. Used in transfers.",
          "params": {
            "receiver": "Address to which tokens are being transferred."
          }
        }
      ],
      "ERC721InvalidSender(address)": [
        {
          "details": "Indicates a failure with the token `sender`. Used in transfers.",
          "params": {
            "sender": "Address whose tokens are being transferred."
          }
        }
      ],
      "ERC721NonexistentToken(uint256)": [
        {
          "details": "Indicates a `tokenId` whose `owner` is the zero address.",
          "params": {
            "tokenId": "Identifier number of a token."
          }
        }
      ]
    },
    "events": {
      "Approval(address,address,uint256)": {
        "details": "Emitted when `owner` enables `approved` to manage the `tokenId` token."
      },
      "ApprovalForAll(address,address,bool)": {
        "details": "Emitted when `owner` enables or disables (`approved`) `operator` to manage all of its assets."
      },
      "Transfer(address,address,uint256)": {
        "details": "Emitted when `tokenId` token is transferred from `from` to `to`."
      }
    },
    "kind": "dev",
    "methods": {
      "approve(address,uint256)": {
        "details": "See {IERC721-approve}."
      },
      "balanceOf(address)": {
        "details": "See {IERC721-balanceOf}."
      },
      "getApproved(uint256)": {
        "details": "See {IERC721-getApproved}."
      },
      "isApprovedForAll(address,address)": {
        "details": "See {IERC721-isApprovedForAll}."
      },
      "name()": {
        "details": "See {IERC721Metadata-name}."
      },
      "ownerOf(uint256)": {
        "details": "See {IERC721-ownerOf}."
      },
      "safeTransferFrom(address,address,uint256)": {
        "details": "See {IERC721-safeTransferFrom}."
      },
      "safeTransferFrom(address,address,uint256,bytes)": {
        "details": "See {IERC721-safeTransferFrom}."
      },
      "setApprovalForAll(address,bool)": {
        "details": "See {IERC721-setApprovalForAll}."
      },
      "supportsInterface(bytes4)": {
        "details": "See {IERC165-supportsInterface}."
      },
      "symbol()": {
        "details": "See {IERC721Metadata-symbol}."
      },
      "tokenURI(uint256)": {
        "details": "See {IERC721Metadata-tokenURI}."
      },
      "transferFrom(address,address,uint256)": {
        "details": "See {IERC721-transferFrom}."
      }
    },
    "version": 1
  },
  "userdoc": {
    "kind": "user",
    "methods": {},
    "version": 1
  }
}